:020000040800F2
:10000000580600209D010008CF12000811120008B8
:10001000CD120008D50200082116000800000000DB
:10002000000000000000000000000000D3120008E3
:100030007104000800000000D1120008D512000869
:10004000B7010008B7010008B7010008B7010008B0
:10005000B7010008B7010008B7010008B7010008A0
:10006000B7010008B7010008B7010008B701000890
:10007000B7010008B7010008B7010008B701000880
:10008000B7010008B7010008B7010008B701000870
:10009000B7010008B7010008B7010008B701000860
:1000A000B7010008B7010008B7010008B701000850
:1000B000B7010008B7010008B7010008B701000840
:1000C000B7010008B7010008B7010008B701000830
:1000D000B701000815160008B7010008B7010008AD
:1000E000B7010008B7010008B7010008B701000810
:1000F000B7010008B7010008B7010008B701000800
:10010000B7010008B7010008B7010008B7010008EF
:10011000B7010008B7010008B7010008B7010008DF
:10012000B7010008B7010008B7010008B7010008CF
:10013000B7010008B7010008B7010008B7010008BF
:10014000B7010008B7010008B7010008B7010008AF
:10015000B7010008B7010008B7010008B70100089F
:10016000B7010008B7010008B7010008B70100088F
:10017000B7010008B7010008B7010008000000003F
:10018000B7010008B7010008DFF80CD000F090F8C4
:1001900000480047551800085806002006488047C8
:1001A00006480047FEE7FEE7FEE7FEE7FEE7FEE75C
:1001B000FEE7FEE7FEE7FEE76D1300088901000891
:1001C0002DE9F05F0546002092469B46884606468C
:1001D000814640241BE0284641464746224600F01F
:1001E00057F853465A46C01A914110D31146184643
:1001F000224600F03EF82D1A67EB01084F462246D2
:100200000120002100F035F817EB00094E41201EB7
:10021000A4F10104DFDC484631462A464346BDE8E6
:10022000F09FD2B201E000F8012B491EFBD27047CB
:100230000022F6E710B513460A4604461946FFF7B2
:10024000F0FF204610BD30B50B46014600202022AD
:10025000012409E021FA02F59D4205D303FA02F5D3
:10026000491B04FA02F52844151EA2F10102F1DC33
:1002700030BD202A04DB203A00FA02F1002070474A
:100280009140C2F1200320FA03F3194390407047D4
:10029000202A04DB203A21FA02F00021704721FADB
:1002A00002F3D040C2F12002914008431946704742
:1002B000064C074D06E0E06840F0010394E80700B3
:1002C00098471034AC42F6D3FFF762FF10190008CC
:1002D00030190008FEE7000070B5154800240168D9
:1002E00021F44021016001680160124D04E0641CAA
:1002F000E4B2012001F088FAD5F8240210B1642C90
:10030000F5D30DE0642C0BD2002404E0641CE4B2AD
:10031000012001F079FAD5F8240218B1642C04D335
:10032000012070BD642CF1D3FAE7002070BD0000FD
:1003300000180240000043420E4800B5016887B033
:1003400041F0400101600068694600F040000590FE
:100350004FF4007000900120019002900320039060
:10036000054800F0E1F800F065F8FFF7B5FF07B0C9
:1003700000BD0000303802400018024070B5002473
:10038000104D04E0641CE4B2012001F03DFAD5F800
:10039000240208B1642CF5D3002404E0641CE4B208
:1003A000012001F031FAD5F8240208B9642CF5D304
:1003B000282001F029FAD5F82402002800D00120D5
:1003C00070BD00000000434270B5002004464006A6
:1003D000050EFFF7D3FF641C2843E4B2082CF6D3C4
:1003E00070BD2DE9FC410D46064600F023F8FFF7ED
:1003F00073FF10B10120BDE8FC8100246F46FFF7B8
:10040000E3FF3855641CE4B2052CF8D39DF80010C6
:100410009DF801009DF803300A189DF8020003447E
:100420001A449DF804309A4201D12970307000209E
:10043000E1E700000C4810B5016821F4402101609B
:10044000016841F480210160084C0020C4F8A40236
:10045000142004F5297401F0C9F901202060BDE8D9
:1004600010401E2001F0D0B90018024000004342A5
:10047000704772B6FEE72DE9F0410446876D00F043
:100480004FF9064694F835000025022806D0802052
:10049000606584F834500120BDE8F081206801686F
:1004A00021F0160101602068416921F0800141615D
:1004B000206C08B9A06C20B12068016821F0080107
:1004C00001602068016821F0010101600BE000F08B
:1004D00027F9801B052806D92020606504F8345FC1
:1004E00003206070D8E720680068C007EFD194F857
:1004F0005C103F208840B86004F8345F01206070D1
:100500000020C9E790F83510022903D08021416509
:1005100001207047052180F835100068016821F03E
:1005200001010160002070472DE9F84FDFF8B8A104
:10053000002201250AF1040B03264FF00F090BF1ED
:10054000040E00BF0B6805FA02F42340A3426FD1EA
:100550000F7907F00307012F01D0022F16D187680A
:100560004FEA420806FA08FC27EA0C07D1F80CC04B
:100570000CFA08FC4CEA070CC0F808C04768A7430F
:100580000C79C4F3001494403C4344600C79E44378
:10059000A4070AD0C4684FEA420C06FA0CF7BC4321
:1005A0008F6807FA0CF72743C7600C7904F003043F
:1005B000022C12D1D40800EB840CDCF82040570741
:1005C000FF0E09FA07F824EA0804D1F8108008FAA7
:1005D00007F848EA0408CCF8208004684FEA420C87
:1005E00006FA0CF7BC430F7907F0030707FA0CF77C
:1005F000274307604C68E40070D53C4C276847F4FB
:1006000080472760246822F0030704F480440094A4
:10061000374C07EB040CDCF8084897074FEA1778CB
:1006200009FA08F7BC43334FB84202D1002724E04F
:1006300054E0314FB84201D101271EE02F4FB8429C
:1006400001D1022719E02E4FB84201D1032714E04F
:100650002C4FB84201D104270FE02B4FB84201D1F3
:1006600005270AE0294FB84201D1062705E0284FA7
:10067000B84201D1072700E0082707FA08F7274307
:10068000CCF80878DAF800405746D1F804C09C430B
:100690005FEACC3C00D51C433C60DBF800405F4681
:1006A000D1F804C09C435FEA8C3C00D51C433C60FD
:1006B000DEF800407746D1F804C09C435FEACC2CBA
:1006C00000D51C433C60084F0C373C68D1F804C08F
:1006D0009C435FEA8C2C00D51C433C60521C102AC2
:1006E000FFF430AFBDE8F88F003C014044380240D1
:1006F00000300140000002400004024000080240B7
:10070000000C024000100240001402400018024099
:10071000001C02400AB1816170470904FBE7000038
:10072000014880687047000004000020024881688A
:100730000278114481607047040000200B4810B516
:10074000016841F400710160016841F48061016059
:10075000016841F480710160032000F06FF800200F
:1007600000F006F800F024F8002010BD003C024024
:1007700070B50D4D04464FF47A712878B1FBF0F056
:100780000A490968B1FBF0F000F016FB48B9102CDB
:1007900007D200222146501E00F030F800206C6085
:1007A00070BD012070BD000004000020100000207A
:1007B0000A4808B5016841F480410160006800F40E
:1007C000804000900548001F016841F080510160A1
:1007D000006800F08050009008BD000044380240DE
:1007E000002809DB00F01F02012191404009800030
:1007F00000F1E020C0F8001170470000F0B40E4B8B
:100800001B680C46C3F30223C3F10705042D00D96E
:100810000425191D072901D2002300E0DB1E012653
:1008200006FA05F1491E214099409E40761E164069
:100830003143F0BC00F006BF0CED00E0064900F0CB
:10084000070208684FF6FF03184040EA0220034AF7
:1008500010430860704700000CED00E00000FA054E
:100860002DE9F0470E46050065D0DFF81481D8F871
:100870000000F7B200F00700B04207D288F800701D
:10088000D8F8000000F00700B04254D128683D4C71
:10089000810712D5400703D5206840F4E05020605E
:1008A0002878000703D5206840F460402060206865
:1008B000A96820F0F000084320602878C0072DD0F8
:1008C000304968680839012812D0022813D003285B
:1008D00011D00968890700292DDA216821F0030168
:1008E00001432160FFF71CFF814641F2883A0EE088
:1008F00009688903EFE709688901ECE7FFF710FF52
:10090000A0EB0901514502D90320BDE8F08720681A
:10091000696800F00C00B0EB810FEFD1D8F800103F
:10092000404601F00701B14207D90770006800F0A6
:100930000700B04201D00120E7E72878400705D53D
:100940002068E96820F4E050084320602878000718
:1009500006D52068296920F4604040EAC100206083
:1009600000F038F82168084AC1F30311515CC8400F
:100970000649086006480068FFF7FAFE0020C4E751
:10098000003C024008380240F8180008100000201F
:10099000080000200448054900680968044AC1F3BA
:1009A0008221515CC8407047100000200838024086
:1009B000081900080448054900680968044AC1F399
:1009C0004231515CC8407047100000200838024096
:1009D00008190008154810B5006810F00C021448FA
:1009E00013D04110042A0FD0082A0ED10F4C241F17
:1009F0002268236802F03F025B0207D52068C0F33B
:100A00008810A0FB010106E0084610BD2168C1F373
:100A10008811A1FB00010023FFF7D2FB2168C1F37D
:100A20000141491C4900B0FBF1F010BD08380240FB
:100A30000024F4002DE9F84F04006ED02078DFF890
:100A40004C93C007A9F104054AD009F104000168DC
:100A5000C1F38101012908D00068C0F38100022898
:100A60000AD1D9F80000400206D52868800337D59E
:100A700060680028E1D033E06068B0F5803F10D0B6
:100A8000B0F5A02F286810D020F4803028602868A6
:100A900020F4802028606068A8B1FFF741FE064678
:100AA0000DE0286840F48030F4E740F480202860AE
:100AB000F7E700BFFFF734FE801B642873D828686F
:100AC0008003F7D50CE0FFF72BFE064605E000BFDC
:100AD000FFF726FE801B6428F0D828688003F7D42F
:100AE0002078DFF8AC8280074FF0000A3ED5A74897
:100AF000001D016811F00C0F08D00068C0F38100E0
:100B000002280BD1D9F80000400207D428688007DA
:100B100016D5E068012800D112E033E1E068B8B1F1
:100B20000120C8F80000FFF7FBFD064605E000BF06
:100B3000FFF7F6FD801B0228C0D828688007F7D58C
:100B40002868216920F0F80040EAC10028600DE023
:100B5000C8F800A0FFF7E4FD064604E0FFF7E0FD5B
:100B6000801B02281FD828688007F7D42078000748
:100B700022D5864F87486169703771B101210160C4
:100B8000FFF7CEFD064604E0FFF7CAFD801B0228F2
:100B900009D838688007F7D50EE0C0F800A0FFF745
:100BA000BFFD064605E082E0FFF7BAFD801B022884
:100BB0007DD838688007F7D42078400768D5DFF8FB
:100BC000CCB100270BF13C0BDBF80000C0000BD4CC
:100BD000DBF8001041F08051CBF80010DBF800008A
:100BE000012700F0805000906B4E3068C00510D493
:100BF000306840F480703060FFF792FD009005E0AF
:100C0000FFF78EFD0099401A022850D83068C005C1
:100C1000F6D55E4EA0686C3601280FD005283068E6
:100C200010D020F001003060306820F00400306007
:100C3000A068B8B1FFF774FD00900FE0306840F095
:100C40000100F4E740F004003060F7E7FFF768FDCB
:100C50000099411A41F28830814266D83068800795
:100C6000F4D50EE0FFF75CFD009007E0FFF758FDBC
:100C70000099411A41F28830814256D83068800785
:100C8000F4D42FB1DBF8001021F08051CBF8001024
:100C9000A069C8B33D49091D0968C1F38101022952
:100CA0004AD00228504607D0C8F8600000E03CE077
:100CB000FFF736FD04463BE04746C8F86000FFF703
:100CC0002FFD064605E000BFFFF72AFD801B022826
:100CD0002BD828688001F7D4D4E907010843A16A1A
:100CE0002E4A490802EB0141626A41EA8211084337
:100CF00094F82C1040EA0161C9F800100120386610
:100D0000FFF70EFD044606E03EE000BFFFF708FDDA
:100D1000001B022809D828688001F7D534E000BFFD
:100D2000FFF7FEFC001B022802D90320BDE8F88F64
:100D300028688001F4D427E00128F7D0D9F8000012
:100D4000E26900F4800191421CD1226A00F03F0167
:100D5000914217D147F6C071626A0140B1EB821F20
:100D600010D1A26A4FF0FF3300F4403103EB52027E
:100D7000B1EB024F06D194F82C1000F07060B0EB8C
:100D8000016F01D00120D1E70020CFE704380240F5
:100D900000004742800E4742007000400000FFFF05
:100DA0004FF0E0210428086903D020F00400086116
:100DB000704740F00400FAE710B5401EB0F1807FA4
:100DC00001D3012010BD4FF0E02460610F216017B6
:100DD00000F038FC0020A06107202061002010BD39
:100DE00070477047F8B5026804461068D1685369C7
:100DF00010F00F0F4FF0000553D003F0010601F47F
:100E0000907737435FD0C20705D0CA0503D5226C5F
:100E100042F001022264420705D5DA0703D0226CB2
:100E200042F002022264820705D5DA0703D0226C61
:100E300042F004022264020707D501F02002324387
:100E400003D0226C42F008022264226C002A34D0C3
:100E5000800604D5880602D5204600F0AFFA206847
:100E60004069216CC0F38010090700D430B32046DC
:100E700000F08CFA2068416949061BD5416921F0D0
:100E800040014161A06BA8B159490165A06BFFF712
:100E900039FB002811D0A06B016D01B0BDE8F04016
:100EA000084783060FD58B060DD52046BDE8F840D0
:100EB00000F084BA2046FFF794FFF8BD2046FFF704
:100EC00090FF2564F8BD266B2023012E53D1C60662
:100ED00051D5CE064FD51068506800905069400635
:100EE0002BD5A16B086840680004000CEAD0A68DE1
:100EF0008642E7D9E085C869B0F5807F18D0D06810
:100F000020F48070D0602068416921F001014161C6
:100F10002068416921F04001416184F83E30256339
:100F20002068C16821F01001C160A06BFFF7A3FA2F
:100F3000A08DE18D401A81B219E0A08DE18D401A9B
:100F400081B2E08D0028BDD00029BBD0D06820F44C
:100F50009070D0602068426922F00102426184F8FA
:100F60003E3025632068C26822F01002C26020462D
:100F7000FFF736FFF8BD05062BD50D0629D594F8E9
:100F80003D002128F6D1A068B0F5805F01D120692D
:100F9000B0B1206A411C2162216800784860E08C71
:100FA000401E0004000CE084E4D12068C16821F0F8
:100FB0008001C1602068C16841F04001C160F8BD96
:100FC000206A0088C0F308005060206A801C2062FC
:100FD000E5E74006F3D54806F1D5D168204621F073
:100FE0004001D16084F83D3000F011F9F8BD0000F7
:100FF0007D13000870B5040004D094F83D0000256E
:1010000010B106E0012070BD84F83C50204600F08D
:1010100023F8242084F83D002068C16821F40051A1
:10102000C160204600F022FA2068016921F4904155
:1010300001612068416921F02A0141612068C1688D
:1010400041F40051C1602564202084F83D0084F8FB
:101050003E00002070BD000010B586B0044614218B
:101060006846FFF7E5F818492068884229D11748F3
:101070000021026842F010020260006800F01000D7
:10108000059012481438026842F0010202600068BC
:1010900000F0010005904FF4C06000900220CDE9FF
:1010A0000101032003900720049069460848FFF7D8
:1010B0003BFA002211462520FFF7A0FB2520FFF771
:1010C0008FFB06B010BD0000001001404438024004
:1010D0000000024090F83E30202B0ED159B152B1A1
:1010E00090F83C30012B08D0012380F83C300023DD
:1010F000036300F041BA01207047022070470000EE
:1011000030B50068124988420CD1124841880A045F
:1011100008D402464C0412784FF0000306D50A2A80
:1011200001D0438030BD41F400410EE00D2A0AD0C9
:10113000C1F30D04084D491C89B22A554180B1F50F
:10114000FA7FEED230BD41F48041418030BD0000D5
:1011500000100140000000201C0000202DE9F84391
:10116000044690F83D001F4616460D4620284CD1F7
:10117000C5B1BEB194F83C00012846D0012084F8E6
:101180003C004FF00008C4F84080212084F83D0066
:10119000FFF7C6FAA6848146E684A068B0F5805FB2
:1011A00003D004E00120BDE8F883206928B12E4671
:1011B0005FF0000584F83C800EE00026FAE780210D
:1011C000204600F0F4F9A0B9AEB116F8010B216881
:1011D0004860E08C401EE084E08C4B464FF00002FB
:1011E00000970028EBD14FF04001204600F0DFF9D6
:1011F00030B10320D7E735F8020BC0F30800E6E76B
:10120000202084F83D000020CDE70220CBE7704786
:10121000FEE7000070B586B014216846FFF708F8B5
:101220001A480024016841F004010160016801F0DE
:1012300004010591016841F020010160016801F09D
:1012400020010591016841F080010160016801F011
:1012500080010591016841F00101016000680C4EB8
:1012600000F001004FF4C065059000222946304689
:10127000FFF750FA01200095CDE901046946304698
:101280000394FFF751F906B070BD000030380240FA
:10129000001402400C4810B50A4901604FF4E131D6
:1012A0004160002181600C22C160C0E904128161AB
:1012B000C161FFF79FFE002803D0BDE81040FFF793
:1012C000D8B810BD0010014010020020FEE7FEE774
:1012D00070477047FFF72ABA30B593B0302168469F
:1012E000FEF7A6FF14210CA8FEF7A2FF1D4800255B
:1012F000016841F080510160006800F08050119059
:101300001948016841F4804101600068022400F43A
:101310008040119001200090000401908001CDE9EF
:10132000064008AA0420A82182E813000B90684612
:10133000FFF780FB08B172B6FEE70CA90F2081E829
:1013400031004FF4A0500F904FF4805010900521C1
:101350000CA8FFF785FA002801D072B6FEE713B09B
:1013600030BD000040380240007000400248016873
:1013700041F470010160704788ED00E010B5806BAA
:101380000021C185C184FFF72CFD10BD0168CA682A
:1013900022F49072CA6001684A6922F001024A612F
:1013A000016B012904D10168CA6822F01002CA60E9
:1013B000202180F83E1000210163704710B50446DB
:1013C00090F83E00222801D0022010BDA1684FF401
:1013D0008052914201D1206920B1A06A91421BD074
:1013E00049B10AE02168A06A4968C1F30801018097
:1013F000A06A801C08E0216971B12168496801F088
:101400007F010170A06A401CA062E08D401E0004B4
:10141000000CE08503D01CE021684968F1E72068F2
:10142000C16821F02001C1602068C16821F4807189
:10143000C1602068416921F001014161202084F8E8
:101440003E00206B012806D02046FFF759FE002001
:101450002063002010BD2068C16821F01001C16028
:10146000A18D2046FFF7BCFCF1E7000070B50446F3
:1014700000680169E26821F440511143016121696A
:10148000A068E26908436169114308432168CA689A
:1014900049F20C639A430243CA6020684169A26919
:1014A00021F440711143416131492068884202D0E2
:1014B0003049884202D1FFF77DFA01E0FFF76AFA6E
:1014C000E2690023192164253226B2F5004F6268D3
:1014D00028D0A0FB0101930F9200FEF771FE014698
:1014E000B0FBF5F06FF01802504301EB800006EB03
:1014F0000010B0FBF5F000F0F002B1FBF5F002EBEC
:101500000012B1FBF5F06FF01803584301EB8000B7
:1015100006EB0010B0FBF5F000F00F00216810445E
:10152000886070BDA0FB010192185B41FEF748FE88
:101530000146B0FBF5F00201B1FBF5F06FF01803C6
:10154000584301EB800006EBC000B0FBF5F000F063
:10155000F80002EB4002B1FBF5F0584301EB8000CC
:1015600006EBC000B0FBF5F000F00700D6E7000086
:10157000001001400014014081628285C285002173
:101580000164222280F83E2080F83C100168CA687D
:1015900042F48072CA6001684A6942F001024A61FD
:1015A0000068C16841F02001C160002070472DE94A
:1015B000F041984617460E460446069D1DE0681CFD
:1015C0001BD02DB1FFF7ACF8A0EB0800A84214D94E
:1015D0002068C16821F4D071C1602068416921F0A0
:1015E00001014161202084F83D0084F83E00002084
:1015F00084F83C000320BDE8F0812068006836EAEA
:10160000000004D00020B842D9D00020F3E7012028
:10161000F9E700000148FFF7E5BB000010020020D9
:10162000FEE700000FB4054B10B503A9044A029869
:1016300000F028F810BC5DF814FB00003D1800080D
:10164000180000200907090E002804DB00F1E02043
:1016500080F80014704700F00F0000F1E02080F8DF
:10166000141D704702E008C8121F08C1002AFAD1F1
:1016700070477047002001E001C1121F002AFBD112
:10168000704700002DE9FF4F89B09B4604460025B6
:1016900006E025280BD05A460B999047641C6D1C18
:1016A00020780028F5D10DB02846BDE8F08F00273E
:1016B000B8460122474900E0074314F8013F203BA8
:1016C00002FA03F00842F7D120782E2819D114F835
:1016D000010F47F004072A280ED06FF02F02207860
:1016E000A0F1300109290CD808EB880102EB410177
:1016F00000EB0108641CF2E70A98641C50F8048BA4
:101700000A9020780028CED0642808D0692806D016
:1017100075281ED05A460B9990476D1C58E00A99BF
:101720004FF00A0901C90A91002802DA40422D212E
:1017300002E0390504D52B218DF82010012103E0AA
:10174000F90704D02021F7E78A4608AE0DE0002112
:10175000FAE70A994FF00A0901C90A91F7E74946E1
:10176000FEF771FD303106F8011D0028F7D1ADEB11
:10177000060000F12009780701D44FF00108C845A0
:1017800002DDA8EB090000E000208046002706E00B
:1017900008A85A46C05D0B9990476D1C7F1C5745A1
:1017A000F6DB04E030205A460B9990476D1CB8F1E7
:1017B0000001A8F10108F5DC05E016F8010B5A4616
:1017C0000B9990476D1CB9F10001A9F10109F4DCF6
:1017D000641C65E70928010010B504460420FFF7E2
:1017E000DFFA0148046010BD1400002070B5054602
:1017F00000244FF47A7603E0304600F005F8641CCC
:10180000AC42F9D370BD000070B54FF0E024002267
:1018100065690949A36909684843A1699942FCD0EF
:1018200002D2A3EB010302E0A5EB010633441A4404
:101830000B468242F1D370BD1400002013B54FF661
:10184000FF73012269460248FFF788FC00981CBD1F
:10185000100200201CB50024FEF770FFA820FFF73F
:10186000BBFFFFF739FDFEF767FDFFF7D3FCFFF77E
:1018700011FD012212491348FFF72CFC5FF00A0505
:10188000B4FBF5F005FB104098B901A96846FEF7D6
:10189000A8FD0DA0FFF7C6FE9DF800100FA0FFF7F2
:1018A000C1FE9DF8041010A0FFF7BCFE11A0FFF7C9
:1018B000B9FE6420FFF79AFF641CE4B2E0E7000081
:1018C0000000002010020020323031384131343124
:1018D0003333204875616E670D0A000054656D3A18
:1018E00025640D0A0000000048756D3A25640D0A54
:1018F000000000000D0A0A000000000000000000C7
:1019000001020304060708090000000001020304A5
:1019100030190008000000201C00000064160008B8
:101920004C1900081C0000203C060000741600083A
:101930000000000001000000100000000000000096
:0C1940000024F400000000000000000083
:040000050800018965
:00000001FF
